{
  "contractName": "Polymarket",
  "abi": [
    {
      "inputs": [
        {
          "internalType": "address",
          "name": "_polyToken",
          "type": "address"
        }
      ],
      "stateMutability": "nonpayable",
      "type": "constructor"
    },
    {
      "anonymous": false,
      "inputs": [
        {
          "indexed": false,
          "internalType": "uint256",
          "name": "id",
          "type": "uint256"
        },
        {
          "indexed": false,
          "internalType": "string",
          "name": "question",
          "type": "string"
        },
        {
          "indexed": false,
          "internalType": "uint256",
          "name": "timestamp",
          "type": "uint256"
        },
        {
          "indexed": false,
          "internalType": "address",
          "name": "createdBy",
          "type": "address"
        },
        {
          "indexed": false,
          "internalType": "string",
          "name": "creatorImageHash",
          "type": "string"
        },
        {
          "indexed": false,
          "internalType": "uint256",
          "name": "totalAmount",
          "type": "uint256"
        },
        {
          "indexed": false,
          "internalType": "uint256",
          "name": "totalYesAmount",
          "type": "uint256"
        },
        {
          "indexed": false,
          "internalType": "uint256",
          "name": "totalNoAmount",
          "type": "uint256"
        }
      ],
      "name": "QuestionCreated",
      "type": "event"
    },
    {
      "inputs": [],
      "name": "owner",
      "outputs": [
        {
          "internalType": "address",
          "name": "",
          "type": "address"
        }
      ],
      "stateMutability": "view",
      "type": "function",
      "constant": true
    },
    {
      "inputs": [],
      "name": "polyToken",
      "outputs": [
        {
          "internalType": "address",
          "name": "",
          "type": "address"
        }
      ],
      "stateMutability": "view",
      "type": "function",
      "constant": true
    },
    {
      "inputs": [
        {
          "internalType": "uint256",
          "name": "",
          "type": "uint256"
        }
      ],
      "name": "questions",
      "outputs": [
        {
          "internalType": "uint256",
          "name": "id",
          "type": "uint256"
        },
        {
          "internalType": "string",
          "name": "question",
          "type": "string"
        },
        {
          "internalType": "uint256",
          "name": "timestamp",
          "type": "uint256"
        },
        {
          "internalType": "uint256",
          "name": "endTimestamp",
          "type": "uint256"
        },
        {
          "internalType": "address",
          "name": "createdBy",
          "type": "address"
        },
        {
          "internalType": "string",
          "name": "creatorImageHash",
          "type": "string"
        },
        {
          "internalType": "uint256",
          "name": "totalAmount",
          "type": "uint256"
        },
        {
          "internalType": "uint256",
          "name": "totalYesAmount",
          "type": "uint256"
        },
        {
          "internalType": "uint256",
          "name": "totalNoAmount",
          "type": "uint256"
        },
        {
          "internalType": "bool",
          "name": "eventCompleted",
          "type": "bool"
        },
        {
          "internalType": "string",
          "name": "description",
          "type": "string"
        },
        {
          "internalType": "string",
          "name": "resolverUrl",
          "type": "string"
        }
      ],
      "stateMutability": "view",
      "type": "function",
      "constant": true
    },
    {
      "inputs": [],
      "name": "totalQuestions",
      "outputs": [
        {
          "internalType": "uint256",
          "name": "",
          "type": "uint256"
        }
      ],
      "stateMutability": "view",
      "type": "function",
      "constant": true
    },
    {
      "inputs": [
        {
          "internalType": "uint256",
          "name": "",
          "type": "uint256"
        }
      ],
      "name": "winningAddresses",
      "outputs": [
        {
          "internalType": "address",
          "name": "",
          "type": "address"
        }
      ],
      "stateMutability": "view",
      "type": "function",
      "constant": true
    },
    {
      "inputs": [
        {
          "internalType": "address",
          "name": "",
          "type": "address"
        }
      ],
      "name": "winningAmount",
      "outputs": [
        {
          "internalType": "uint256",
          "name": "",
          "type": "uint256"
        }
      ],
      "stateMutability": "view",
      "type": "function",
      "constant": true
    },
    {
      "inputs": [
        {
          "internalType": "string",
          "name": "_question",
          "type": "string"
        },
        {
          "internalType": "string",
          "name": "_creatorImageHash",
          "type": "string"
        },
        {
          "internalType": "string",
          "name": "_description",
          "type": "string"
        },
        {
          "internalType": "string",
          "name": "_resolverUrl",
          "type": "string"
        },
        {
          "internalType": "uint256",
          "name": "_endTimestamp",
          "type": "uint256"
        }
      ],
      "name": "createQuestion",
      "outputs": [],
      "stateMutability": "nonpayable",
      "type": "function"
    },
    {
      "inputs": [
        {
          "internalType": "uint256",
          "name": "_questionId",
          "type": "uint256"
        },
        {
          "internalType": "uint256",
          "name": "_value",
          "type": "uint256"
        }
      ],
      "name": "addYesBet",
      "outputs": [],
      "stateMutability": "payable",
      "type": "function",
      "payable": true
    },
    {
      "inputs": [
        {
          "internalType": "uint256",
          "name": "_questionId",
          "type": "uint256"
        },
        {
          "internalType": "uint256",
          "name": "_value",
          "type": "uint256"
        }
      ],
      "name": "addNoBet",
      "outputs": [],
      "stateMutability": "payable",
      "type": "function",
      "payable": true
    },
    {
      "inputs": [
        {
          "internalType": "uint256",
          "name": "_questionId",
          "type": "uint256"
        }
      ],
      "name": "getGraphData",
      "outputs": [
        {
          "components": [
            {
              "internalType": "address",
              "name": "user",
              "type": "address"
            },
            {
              "internalType": "uint256",
              "name": "amount",
              "type": "uint256"
            },
            {
              "internalType": "uint256",
              "name": "timestamp",
              "type": "uint256"
            }
          ],
          "internalType": "struct Polymarket.AmountAdded[]",
          "name": "",
          "type": "tuple[]"
        },
        {
          "components": [
            {
              "internalType": "address",
              "name": "user",
              "type": "address"
            },
            {
              "internalType": "uint256",
              "name": "amount",
              "type": "uint256"
            },
            {
              "internalType": "uint256",
              "name": "timestamp",
              "type": "uint256"
            }
          ],
          "internalType": "struct Polymarket.AmountAdded[]",
          "name": "",
          "type": "tuple[]"
        }
      ],
      "stateMutability": "view",
      "type": "function",
      "constant": true
    },
    {
      "inputs": [
        {
          "internalType": "uint256",
          "name": "_questionId",
          "type": "uint256"
        },
        {
          "internalType": "bool",
          "name": "eventOutcome",
          "type": "bool"
        }
      ],
      "name": "distributeWinningAmount",
      "outputs": [],
      "stateMutability": "payable",
      "type": "function",
      "payable": true
    },
    {
      "inputs": [],
      "name": "isAdmin",
      "outputs": [
        {
          "internalType": "bool",
          "name": "",
          "type": "bool"
        }
      ],
      "stateMutability": "view",
      "type": "function",
      "constant": true
    },
    {
      "inputs": [],
      "name": "getBal",
      "outputs": [
        {
          "internalType": "uint256",
          "name": "",
          "type": "uint256"
        }
      ],
      "stateMutability": "view",
      "type": "function",
      "constant": true
    }
  ],
  "bytecode": "0x608060405260006003553480156200001657600080fd5b506040516200252e3803806200252e83398181016040528101906200003c91906200012e565b336000806101000a81548173ffffffffffffffffffffffffffffffffffffffff021916908373ffffffffffffffffffffffffffffffffffffffff16021790555080600160006101000a81548173ffffffffffffffffffffffffffffffffffffffff021916908373ffffffffffffffffffffffffffffffffffffffff1602179055505062000160565b600080fd5b600073ffffffffffffffffffffffffffffffffffffffff82169050919050565b6000620000f682620000c9565b9050919050565b6200010881620000e9565b81146200011457600080fd5b50565b6000815190506200012881620000fd565b92915050565b600060208284031215620001475762000146620000c4565b5b6000620001578482850162000117565b91505092915050565b6123be80620001706000396000f3fe6080604052600436106100c25760003560e01c80638da5cb5b1161007f578063bea5b91411610059578063bea5b9141461027b578063bf01fe00146102a6578063da6b4db8146102c2578063eb3f75e2146102ff576100c2565b80638da5cb5b146101e8578063b6db75a014610213578063b78d6c1d1461023e576100c2565b806314dd5762146100c757806319a1cafe1461010557806325caa2621461012e57806331b1b978146101595780636faa22a5146101a1578063724ba40b146101cc575b600080fd5b3480156100d357600080fd5b506100ee60048036038101906100e991906117a1565b61031b565b6040516100fc92919061190f565b60405180910390f35b34801561011157600080fd5b5061012c60048036038101906101279190611a8c565b6104cd565b005b34801561013a57600080fd5b506101436106c1565b6040516101509190611b86565b60405180910390f35b34801561016557600080fd5b50610180600480360381019061017b91906117a1565b6106c9565b6040516101989c9b9a99989796959493929190611c53565b60405180910390f35b3480156101ad57600080fd5b506101b6610976565b6040516101c39190611d29565b60405180910390f35b6101e660048036038101906101e19190611d70565b61099c565b005b3480156101f457600080fd5b506101fd6111b8565b60405161020a9190611d29565b60405180910390f35b34801561021f57600080fd5b506102286111dc565b6040516102359190611db0565b60405180910390f35b34801561024a57600080fd5b50610265600480360381019061026091906117a1565b611244565b6040516102729190611d29565b60405180910390f35b34801561028757600080fd5b50610290611283565b60405161029d9190611b86565b60405180910390f35b6102c060048036038101906102bb9190611dcb565b611289565b005b3480156102ce57600080fd5b506102e960048036038101906102e49190611e37565b611482565b6040516102f69190611b86565b60405180910390f35b61031960048036038101906103149190611dcb565b61149a565b005b6060806000600260008581526020019081526020016000209050806006018160070181805480602002602001604051908101604052809291908181526020016000905b828210156103fa57838290600052602060002090600302016040518060600160405290816000820160009054906101000a900473ffffffffffffffffffffffffffffffffffffffff1673ffffffffffffffffffffffffffffffffffffffff1673ffffffffffffffffffffffffffffffffffffffff168152602001600182015481526020016002820154815250508152602001906001019061035e565b50505050915080805480602002602001604051908101604052809291908181526020016000905b828210156104bd57838290600052602060002090600302016040518060600160405290816000820160009054906101000a900473ffffffffffffffffffffffffffffffffffffffff1673ffffffffffffffffffffffffffffffffffffffff1673ffffffffffffffffffffffffffffffffffffffff1681526020016001820154815260200160028201548152505081526020019060010190610421565b5050505090509250925050915091565b60008054906101000a900473ffffffffffffffffffffffffffffffffffffffff1673ffffffffffffffffffffffffffffffffffffffff163373ffffffffffffffffffffffffffffffffffffffff161461055b576040517f08c379a000000000000000000000000000000000000000000000000000000000815260040161055290611eb0565b60405180910390fd5b6000429050600060026000600354815260200190815260200160002090506003600081548092919061058c90611eff565b919050558160000181905550868160010190805190602001906105b0929190611693565b50818160020181905550338160040160006101000a81548173ffffffffffffffffffffffffffffffffffffffff021916908373ffffffffffffffffffffffffffffffffffffffff16021790555085816005019080519060200190610615929190611693565b506000816008018190555060008160090181905550600081600a01819055508481600c01908051906020019061064c929190611693565b508381600d019080519060200190610665929190611693565b508281600301819055507fd8960286cb5486e9a27d200d805d06e2eeda2fe2bd67967e36b466ecd440ac996003548884338a60008060006040516106b0989796959493929190611f8d565b60405180910390a150505050505050565b600047905090565b60026020528060005260406000206000915090508060000154908060010180546106f290612048565b80601f016020809104026020016040519081016040528092919081815260200182805461071e90612048565b801561076b5780601f106107405761010080835404028352916020019161076b565b820191906000526020600020905b81548152906001019060200180831161074e57829003601f168201915b5050505050908060020154908060030154908060040160009054906101000a900473ffffffffffffffffffffffffffffffffffffffff16908060050180546107b290612048565b80601f01602080910402602001604051908101604052809291908181526020018280546107de90612048565b801561082b5780601f106108005761010080835404028352916020019161082b565b820191906000526020600020905b81548152906001019060200180831161080e57829003601f168201915b50505050509080600801549080600901549080600a01549080600b0160009054906101000a900460ff169080600c01805461086590612048565b80601f016020809104026020016040519081016040528092919081815260200182805461089190612048565b80156108de5780601f106108b3576101008083540402835291602001916108de565b820191906000526020600020905b8154815290600101906020018083116108c157829003601f168201915b50505050509080600d0180546108f390612048565b80601f016020809104026020016040519081016040528092919081815260200182805461091f90612048565b801561096c5780601f106109415761010080835404028352916020019161096c565b820191906000526020600020905b81548152906001019060200180831161094f57829003601f168201915b505050505090508c565b600160009054906101000a900473ffffffffffffffffffffffffffffffffffffffff1681565b60008054906101000a900473ffffffffffffffffffffffffffffffffffffffff1673ffffffffffffffffffffffffffffffffffffffff163373ffffffffffffffffffffffffffffffffffffffff1614610a2a576040517f08c379a0000000000000000000000000000000000000000000000000000000008152600401610a2190611eb0565b60405180910390fd5b60008214610a6d576040517f08c379a0000000000000000000000000000000000000000000000000000000008152600401610a64906120c6565b60405180910390fd5b60006002600084815260200190815260200160002090508115610e125760005b8160060180549050811015610c735760008260090154836006018381548110610ab957610ab86120e6565b5b90600052602060002090600302016001015484600a0154610ada9190612115565b610ae4919061219e565b9050826006018281548110610afc57610afb6120e6565b5b90600052602060002090600302016001015481610b1991906121cf565b60046000856006018581548110610b3357610b326120e6565b5b906000526020600020906003020160000160009054906101000a900473ffffffffffffffffffffffffffffffffffffffff1673ffffffffffffffffffffffffffffffffffffffff1673ffffffffffffffffffffffffffffffffffffffff1681526020019081526020016000206000828254610bae91906121cf565b925050819055506005836006018381548110610bcd57610bcc6120e6565b5b906000526020600020906003020160000160009054906101000a900473ffffffffffffffffffffffffffffffffffffffff169080600181540180825580915050600190039060005260206000200160009091909190916101000a81548173ffffffffffffffffffffffffffffffffffffffff021916908373ffffffffffffffffffffffffffffffffffffffff160217905550508080610c6b90611eff565b915050610a8d565b5060005b600580549050811015610dfe57600060058281548110610c9a57610c996120e6565b5b9060005260206000200160009054906101000a900473ffffffffffffffffffffffffffffffffffffffff169050600160009054906101000a900473ffffffffffffffffffffffffffffffffffffffff1673ffffffffffffffffffffffffffffffffffffffff1663a9059cbb82600460008573ffffffffffffffffffffffffffffffffffffffff1673ffffffffffffffffffffffffffffffffffffffff168152602001908152602001600020546040518363ffffffff1660e01b8152600401610d6392919061227a565b6020604051808303816000875af1158015610d82573d6000803e3d6000fd5b505050506040513d601f19601f82011682018060405250810190610da691906122b8565b50600460008273ffffffffffffffffffffffffffffffffffffffff1673ffffffffffffffffffffffffffffffffffffffff16815260200190815260200160002060009055508080610df690611eff565b915050610c77565b5060056000610e0d9190611719565b611196565b60005b8160070180549050811015610ffb57600082600a0154836007018381548110610e4157610e406120e6565b5b9060005260206000209060030201600101548460090154610e629190612115565b610e6c919061219e565b9050826007018281548110610e8457610e836120e6565b5b90600052602060002090600302016001015481610ea191906121cf565b60046000856007018581548110610ebb57610eba6120e6565b5b906000526020600020906003020160000160009054906101000a900473ffffffffffffffffffffffffffffffffffffffff1673ffffffffffffffffffffffffffffffffffffffff1673ffffffffffffffffffffffffffffffffffffffff1681526020019081526020016000206000828254610f3691906121cf565b925050819055506005836007018381548110610f5557610f546120e6565b5b906000526020600020906003020160000160009054906101000a900473ffffffffffffffffffffffffffffffffffffffff169080600181540180825580915050600190039060005260206000200160009091909190916101000a81548173ffffffffffffffffffffffffffffffffffffffff021916908373ffffffffffffffffffffffffffffffffffffffff160217905550508080610ff390611eff565b915050610e15565b5060005b60058054905081101561118657600060058281548110611022576110216120e6565b5b9060005260206000200160009054906101000a900473ffffffffffffffffffffffffffffffffffffffff169050600160009054906101000a900473ffffffffffffffffffffffffffffffffffffffff1673ffffffffffffffffffffffffffffffffffffffff1663a9059cbb82600460008573ffffffffffffffffffffffffffffffffffffffff1673ffffffffffffffffffffffffffffffffffffffff168152602001908152602001600020546040518363ffffffff1660e01b81526004016110eb92919061227a565b6020604051808303816000875af115801561110a573d6000803e3d6000fd5b505050506040513d601f19601f8201168201806040525081019061112e91906122b8565b50600460008273ffffffffffffffffffffffffffffffffffffffff1673ffffffffffffffffffffffffffffffffffffffff1681526020019081526020016000206000905550808061117e90611eff565b915050610fff565b50600560006111959190611719565b5b600181600b0160006101000a81548160ff021916908315150217905550505050565b60008054906101000a900473ffffffffffffffffffffffffffffffffffffffff1681565b60008060009054906101000a900473ffffffffffffffffffffffffffffffffffffffff1673ffffffffffffffffffffffffffffffffffffffff163373ffffffffffffffffffffffffffffffffffffffff16141561123c5760019050611241565b600090505b90565b6005818154811061125457600080fd5b906000526020600020016000915054906101000a900473ffffffffffffffffffffffffffffffffffffffff1681565b60035481565b600082146112cc576040517f08c379a00000000000000000000000000000000000000000000000000000000081526004016112c390612331565b60405180910390fd5b6000600260008481526020019081526020016000209050600160009054906101000a900473ffffffffffffffffffffffffffffffffffffffff1673ffffffffffffffffffffffffffffffffffffffff166323b872dd3330856040518463ffffffff1660e01b815260040161134293929190612351565b6020604051808303816000875af1158015611361573d6000803e3d6000fd5b505050506040513d601f19601f8201168201806040525081019061138591906122b8565b50600060405180606001604052803373ffffffffffffffffffffffffffffffffffffffff1681526020018481526020014281525090508282600a0160008282546113cf91906121cf565b92505081905550828260080160008282546113ea91906121cf565b925050819055508160070181908060018154018082558091505060019003906000526020600020906003020160009091909190915060008201518160000160006101000a81548173ffffffffffffffffffffffffffffffffffffffff021916908373ffffffffffffffffffffffffffffffffffffffff1602179055506020820151816001015560408201518160020155505050505050565b60046020528060005260406000206000915090505481565b600082146114dd576040517f08c379a00000000000000000000000000000000000000000000000000000000081526004016114d490612331565b60405180910390fd5b6000600260008481526020019081526020016000209050600160009054906101000a900473ffffffffffffffffffffffffffffffffffffffff1673ffffffffffffffffffffffffffffffffffffffff166323b872dd3330856040518463ffffffff1660e01b815260040161155393929190612351565b6020604051808303816000875af1158015611572573d6000803e3d6000fd5b505050506040513d601f19601f8201168201806040525081019061159691906122b8565b50600060405180606001604052803373ffffffffffffffffffffffffffffffffffffffff168152602001848152602001428152509050828260090160008282546115e091906121cf565b92505081905550828260080160008282546115fb91906121cf565b925050819055508160060181908060018154018082558091505060019003906000526020600020906003020160009091909190915060008201518160000160006101000a81548173ffffffffffffffffffffffffffffffffffffffff021916908373ffffffffffffffffffffffffffffffffffffffff1602179055506020820151816001015560408201518160020155505050505050565b82805461169f90612048565b90600052602060002090601f0160209004810192826116c15760008555611708565b82601f106116da57805160ff1916838001178555611708565b82800160010185558215611708579182015b828111156117075782518255916020019190600101906116ec565b5b509050611715919061173a565b5090565b5080546000825590600052602060002090810190611737919061173a565b50565b5b8082111561175357600081600090555060010161173b565b5090565b6000604051905090565b600080fd5b600080fd5b6000819050919050565b61177e8161176b565b811461178957600080fd5b50565b60008135905061179b81611775565b92915050565b6000602082840312156117b7576117b6611761565b5b60006117c58482850161178c565b91505092915050565b600081519050919050565b600082825260208201905092915050565b6000819050602082019050919050565b600073ffffffffffffffffffffffffffffffffffffffff82169050919050565b6000611825826117fa565b9050919050565b6118358161181a565b82525050565b6118448161176b565b82525050565b606082016000820151611860600085018261182c565b506020820151611873602085018261183b565b506040820151611886604085018261183b565b50505050565b6000611898838361184a565b60608301905092915050565b6000602082019050919050565b60006118bc826117ce565b6118c681856117d9565b93506118d1836117ea565b8060005b838110156119025781516118e9888261188c565b97506118f4836118a4565b9250506001810190506118d5565b5085935050505092915050565b6000604082019050818103600083015261192981856118b1565b9050818103602083015261193d81846118b1565b90509392505050565b600080fd5b600080fd5b6000601f19601f8301169050919050565b7f4e487b7100000000000000000000000000000000000000000000000000000000600052604160045260246000fd5b61199982611950565b810181811067ffffffffffffffff821117156119b8576119b7611961565b5b80604052505050565b60006119cb611757565b90506119d78282611990565b919050565b600067ffffffffffffffff8211156119f7576119f6611961565b5b611a0082611950565b9050602081019050919050565b82818337600083830152505050565b6000611a2f611a2a846119dc565b6119c1565b905082815260208101848484011115611a4b57611a4a61194b565b5b611a56848285611a0d565b509392505050565b600082601f830112611a7357611a72611946565b5b8135611a83848260208601611a1c565b91505092915050565b600080600080600060a08688031215611aa857611aa7611761565b5b600086013567ffffffffffffffff811115611ac657611ac5611766565b5b611ad288828901611a5e565b955050602086013567ffffffffffffffff811115611af357611af2611766565b5b611aff88828901611a5e565b945050604086013567ffffffffffffffff811115611b2057611b1f611766565b5b611b2c88828901611a5e565b935050606086013567ffffffffffffffff811115611b4d57611b4c611766565b5b611b5988828901611a5e565b9250506080611b6a8882890161178c565b9150509295509295909350565b611b808161176b565b82525050565b6000602082019050611b9b6000830184611b77565b92915050565b600081519050919050565b600082825260208201905092915050565b60005b83811015611bdb578082015181840152602081019050611bc0565b83811115611bea576000848401525b50505050565b6000611bfb82611ba1565b611c058185611bac565b9350611c15818560208601611bbd565b611c1e81611950565b840191505092915050565b611c328161181a565b82525050565b60008115159050919050565b611c4d81611c38565b82525050565b600061018082019050611c69600083018f611b77565b8181036020830152611c7b818e611bf0565b9050611c8a604083018d611b77565b611c97606083018c611b77565b611ca4608083018b611c29565b81810360a0830152611cb6818a611bf0565b9050611cc560c0830189611b77565b611cd260e0830188611b77565b611ce0610100830187611b77565b611cee610120830186611c44565b818103610140830152611d018185611bf0565b9050818103610160830152611d168184611bf0565b90509d9c50505050505050505050505050565b6000602082019050611d3e6000830184611c29565b92915050565b611d4d81611c38565b8114611d5857600080fd5b50565b600081359050611d6a81611d44565b92915050565b60008060408385031215611d8757611d86611761565b5b6000611d958582860161178c565b9250506020611da685828601611d5b565b9150509250929050565b6000602082019050611dc56000830184611c44565b92915050565b60008060408385031215611de257611de1611761565b5b6000611df08582860161178c565b9250506020611e018582860161178c565b9150509250929050565b611e148161181a565b8114611e1f57600080fd5b50565b600081359050611e3181611e0b565b92915050565b600060208284031215611e4d57611e4c611761565b5b6000611e5b84828501611e22565b91505092915050565b7f556e617574686f72697a65640000000000000000000000000000000000000000600082015250565b6000611e9a600c83611bac565b9150611ea582611e64565b602082019050919050565b60006020820190508181036000830152611ec981611e8d565b9050919050565b7f4e487b7100000000000000000000000000000000000000000000000000000000600052601160045260246000fd5b6000611f0a8261176b565b91507fffffffffffffffffffffffffffffffffffffffffffffffffffffffffffffffff821415611f3d57611f3c611ed0565b5b600182019050919050565b6000819050919050565b6000819050919050565b6000611f77611f72611f6d84611f48565b611f52565b61176b565b9050919050565b611f8781611f5c565b82525050565b600061010082019050611fa3600083018b611b77565b8181036020830152611fb5818a611bf0565b9050611fc46040830189611b77565b611fd16060830188611c29565b8181036080830152611fe38187611bf0565b9050611ff260a0830186611f7e565b611fff60c0830185611f7e565b61200c60e0830184611f7e565b9998505050505050505050565b7f4e487b7100000000000000000000000000000000000000000000000000000000600052602260045260246000fd5b6000600282049050600182168061206057607f821691505b6020821081141561207457612073612019565b5b50919050565b7f5175657374696f6e2049442063616e6e6f7420626520656d7074790000000000600082015250565b60006120b0601b83611bac565b91506120bb8261207a565b602082019050919050565b600060208201905081810360008301526120df816120a3565b9050919050565b7f4e487b7100000000000000000000000000000000000000000000000000000000600052603260045260246000fd5b60006121208261176b565b915061212b8361176b565b9250817fffffffffffffffffffffffffffffffffffffffffffffffffffffffffffffffff048311821515161561216457612163611ed0565b5b828202905092915050565b7f4e487b7100000000000000000000000000000000000000000000000000000000600052601260045260246000fd5b60006121a98261176b565b91506121b48361176b565b9250826121c4576121c361216f565b5b828204905092915050565b60006121da8261176b565b91506121e58361176b565b9250827fffffffffffffffffffffffffffffffffffffffffffffffffffffffffffffffff0382111561221a57612219611ed0565b5b828201905092915050565b600061224061223b612236846117fa565b611f52565b6117fa565b9050919050565b600061225282612225565b9050919050565b600061226482612247565b9050919050565b61227481612259565b82525050565b600060408201905061228f600083018561226b565b61229c6020830184611b77565b9392505050565b6000815190506122b281611d44565b92915050565b6000602082840312156122ce576122cd611761565b5b60006122dc848285016122a3565b91505092915050565b7f5175657374696f6e2049442063616e6e6f74206265206e756c6c000000000000600082015250565b600061231b601a83611bac565b9150612326826122e5565b602082019050919050565b6000602082019050818103600083015261234a8161230e565b9050919050565b60006060820190506123666000830186611c29565b6123736020830185611c29565b6123806040830184611b77565b94935050505056fea2646970667358221220b5087efd4d61f921e1a63d97bcd8322cc22dab760ce78700b59c512a83171f1864736f6c634300080a0033",
  "immutableReferences": {},
  "source": "// SPDX-License-Identifier: MIT\npragma solidity ^0.8.6;\nimport \"@openzeppelin/contracts/token/ERC20/ERC20.sol\";\n\ncontract Polymarket {\n    address public owner;\n    address public polyToken;\n\n    mapping(uint256 => Questions) public questions;\n    uint256 public totalQuestions = 0;\n\n    constructor(address _polyToken) {\n        owner = msg.sender;\n        polyToken = _polyToken;\n    }\n\n    struct Questions {\n        uint256 id;\n        string question;\n        uint256 timestamp;\n        uint256 endTimestamp;\n        address createdBy;\n        string creatorImageHash;\n        AmountAdded[] yesCount;\n        AmountAdded[] noCount;\n        uint256 totalAmount;\n        uint256 totalYesAmount;\n        uint256 totalNoAmount;\n        bool eventCompleted;\n        string description;\n        string resolverUrl;\n    }\n\n    struct AmountAdded {\n        address user;\n        uint256 amount;\n        uint256 timestamp;\n    }\n\n    mapping(address => uint256) public winningAmount;\n    address[] public winningAddresses;\n\n    event QuestionCreated(\n        uint256 id,\n        string question,\n        uint256 timestamp,\n        address createdBy,\n        string creatorImageHash,\n        uint256 totalAmount,\n        uint256 totalYesAmount,\n        uint256 totalNoAmount\n    );\n\n    function createQuestion(\n        string memory _question,\n        string memory _creatorImageHash,\n        string memory _description,\n        string memory _resolverUrl,\n        uint256 _endTimestamp\n    ) public {\n        require(msg.sender == owner, \"Unauthorized\");\n\n        uint256 timestamp = block.timestamp;\n\n        Questions storage question = questions[totalQuestions];\n\n        question.id = totalQuestions++;\n        question.question = _question;\n        question.timestamp = timestamp;\n        question.createdBy = msg.sender;\n        question.creatorImageHash = _creatorImageHash;\n        question.totalAmount = 0;\n        question.totalYesAmount = 0;\n        question.totalNoAmount = 0;\n        question.description = _description;\n        question.resolverUrl = _resolverUrl;\n        question.endTimestamp = _endTimestamp;\n\n        emit QuestionCreated(\n            totalQuestions,\n            _question,\n            timestamp,\n            msg.sender,\n            _creatorImageHash,\n            0,\n            0,\n            0\n        );\n    }\n\n    function addYesBet(uint256 _questionId, uint256 _value) public payable {\n        require(_questionId == 0, \"Question ID cannot be null\");\n        Questions storage question = questions[_questionId];\n        ERC20(polyToken).transferFrom(msg.sender, address(this), _value);\n        AmountAdded memory amountAdded = AmountAdded(\n            msg.sender,\n            _value,\n            block.timestamp\n        );\n\n        question.totalYesAmount += _value;\n        question.totalAmount += _value;\n        question.yesCount.push(amountAdded);\n    }\n\n    function addNoBet(uint256 _questionId, uint256 _value) public payable {\n        require(_questionId == 0, \"Question ID cannot be null\");\n        Questions storage question = questions[_questionId];\n        ERC20(polyToken).transferFrom(msg.sender, address(this), _value);\n        AmountAdded memory amountAdded = AmountAdded(\n            msg.sender,\n            _value,\n            block.timestamp\n        );\n\n        question.totalNoAmount += _value;\n        question.totalAmount += _value;\n        question.noCount.push(amountAdded);\n    }\n\n    function getGraphData(uint256 _questionId)\n        public\n        view\n        returns (AmountAdded[] memory, AmountAdded[] memory)\n    {\n        Questions storage question = questions[_questionId];\n        return (question.yesCount, question.noCount);\n    }\n\n    function distributeWinningAmount(uint256 _questionId, bool eventOutcome)\n        public\n        payable\n    {\n        require(msg.sender == owner, \"Unauthorized\");\n        require(_questionId == 0, \"Question ID cannot be empty\");\n\n        Questions storage question = questions[_questionId];\n        if (eventOutcome) {\n            for (uint256 i = 0; i < question.yesCount.length; i++) {\n                uint256 amount = (question.totalNoAmount *\n                    question.yesCount[i].amount) / question.totalYesAmount;\n                winningAmount[question.yesCount[i].user] += (amount +\n                    question.yesCount[i].amount);\n                winningAddresses.push(question.yesCount[i].user);\n            }\n\n            for (uint256 i = 0; i < winningAddresses.length; i++) {\n                address payable _address = payable(winningAddresses[i]);\n                ERC20(polyToken).transfer(_address, winningAmount[_address]);\n                delete winningAmount[_address];\n            }\n            delete winningAddresses;\n        } else {\n            for (uint256 i = 0; i < question.noCount.length; i++) {\n                uint256 amount = (question.totalYesAmount *\n                    question.noCount[i].amount) / question.totalNoAmount;\n                winningAmount[question.noCount[i].user] += (amount +\n                    question.noCount[i].amount);\n                winningAddresses.push(question.noCount[i].user);\n            }\n\n            for (uint256 i = 0; i < winningAddresses.length; i++) {\n                address payable _address = payable(winningAddresses[i]);\n                ERC20(polyToken).transfer(_address, winningAmount[_address]);\n                delete winningAmount[_address];\n            }\n            delete winningAddresses;\n        }\n        question.eventCompleted = true;\n    }\n\n    function isAdmin() public view returns (bool) {\n        if (msg.sender == owner) return true;\n        else return false;\n    }\n\n    function getBal() public view returns (uint256) {\n        return address(this).balance;\n    }\n}\n\n// \"Will Modi win?\", \"abcd\", \"xyz\", \"https;//google.com\"\n",
  "sourcePath": "/Users/viralsangani/Desktop/polymarket/contracts/Polymarket.sol",
  "compiler": {
    "name": "solc",
    "version": "0.8.10+commit.fc410830.Emscripten.clang"
  },
  "schemaVersion": "3.4.1",
  "updatedAt": "2021-11-10T13:05:39.512Z",
  "networkType": "ethereum",
  "devdoc": {
    "kind": "dev",
    "methods": {},
    "version": 1
  },
  "userdoc": {
    "kind": "user",
    "methods": {},
    "version": 1
  }
}