{
  "contractName": "Polymarket",
  "abi": [
    {
      "inputs": [
        {
          "internalType": "address",
          "name": "_polyToken",
          "type": "address"
        }
      ],
      "stateMutability": "nonpayable",
      "type": "constructor"
    },
    {
      "anonymous": false,
      "inputs": [
        {
          "indexed": false,
          "internalType": "uint256",
          "name": "id",
          "type": "uint256"
        },
        {
          "indexed": false,
          "internalType": "string",
          "name": "question",
          "type": "string"
        },
        {
          "indexed": false,
          "internalType": "uint256",
          "name": "timestamp",
          "type": "uint256"
        },
        {
          "indexed": false,
          "internalType": "address",
          "name": "createdBy",
          "type": "address"
        },
        {
          "indexed": false,
          "internalType": "string",
          "name": "creatorImageHash",
          "type": "string"
        },
        {
          "indexed": false,
          "internalType": "uint256",
          "name": "totalAmount",
          "type": "uint256"
        },
        {
          "indexed": false,
          "internalType": "uint256",
          "name": "totalYesAmount",
          "type": "uint256"
        },
        {
          "indexed": false,
          "internalType": "uint256",
          "name": "totalNoAmount",
          "type": "uint256"
        }
      ],
      "name": "QuestionCreated",
      "type": "event"
    },
    {
      "inputs": [],
      "name": "owner",
      "outputs": [
        {
          "internalType": "address",
          "name": "",
          "type": "address"
        }
      ],
      "stateMutability": "view",
      "type": "function",
      "constant": true
    },
    {
      "inputs": [],
      "name": "polyToken",
      "outputs": [
        {
          "internalType": "address",
          "name": "",
          "type": "address"
        }
      ],
      "stateMutability": "view",
      "type": "function",
      "constant": true
    },
    {
      "inputs": [
        {
          "internalType": "uint256",
          "name": "",
          "type": "uint256"
        }
      ],
      "name": "questions",
      "outputs": [
        {
          "internalType": "uint256",
          "name": "id",
          "type": "uint256"
        },
        {
          "internalType": "string",
          "name": "question",
          "type": "string"
        },
        {
          "internalType": "uint256",
          "name": "timestamp",
          "type": "uint256"
        },
        {
          "internalType": "address",
          "name": "createdBy",
          "type": "address"
        },
        {
          "internalType": "string",
          "name": "creatorImageHash",
          "type": "string"
        },
        {
          "internalType": "uint256",
          "name": "totalAmount",
          "type": "uint256"
        },
        {
          "internalType": "uint256",
          "name": "totalYesAmount",
          "type": "uint256"
        },
        {
          "internalType": "uint256",
          "name": "totalNoAmount",
          "type": "uint256"
        },
        {
          "internalType": "bool",
          "name": "eventCompleted",
          "type": "bool"
        },
        {
          "internalType": "string",
          "name": "description",
          "type": "string"
        },
        {
          "internalType": "string",
          "name": "resolverUrl",
          "type": "string"
        }
      ],
      "stateMutability": "view",
      "type": "function",
      "constant": true
    },
    {
      "inputs": [],
      "name": "totalQuestions",
      "outputs": [
        {
          "internalType": "uint256",
          "name": "",
          "type": "uint256"
        }
      ],
      "stateMutability": "view",
      "type": "function",
      "constant": true
    },
    {
      "inputs": [
        {
          "internalType": "uint256",
          "name": "",
          "type": "uint256"
        }
      ],
      "name": "winningAddresses",
      "outputs": [
        {
          "internalType": "address",
          "name": "",
          "type": "address"
        }
      ],
      "stateMutability": "view",
      "type": "function",
      "constant": true
    },
    {
      "inputs": [
        {
          "internalType": "address",
          "name": "",
          "type": "address"
        }
      ],
      "name": "winningAmount",
      "outputs": [
        {
          "internalType": "uint256",
          "name": "",
          "type": "uint256"
        }
      ],
      "stateMutability": "view",
      "type": "function",
      "constant": true
    },
    {
      "inputs": [
        {
          "internalType": "string",
          "name": "_question",
          "type": "string"
        },
        {
          "internalType": "string",
          "name": "_creatorImageHash",
          "type": "string"
        },
        {
          "internalType": "string",
          "name": "_description",
          "type": "string"
        },
        {
          "internalType": "string",
          "name": "_resolverUrl",
          "type": "string"
        }
      ],
      "name": "createQuestion",
      "outputs": [],
      "stateMutability": "nonpayable",
      "type": "function"
    },
    {
      "inputs": [
        {
          "internalType": "uint256",
          "name": "_questionId",
          "type": "uint256"
        }
      ],
      "name": "addYesBet",
      "outputs": [],
      "stateMutability": "payable",
      "type": "function",
      "payable": true
    },
    {
      "inputs": [
        {
          "internalType": "uint256",
          "name": "_questionId",
          "type": "uint256"
        }
      ],
      "name": "addNoBet",
      "outputs": [],
      "stateMutability": "payable",
      "type": "function",
      "payable": true
    },
    {
      "inputs": [
        {
          "internalType": "uint256",
          "name": "_questionId",
          "type": "uint256"
        }
      ],
      "name": "getGraphData",
      "outputs": [
        {
          "components": [
            {
              "internalType": "address",
              "name": "user",
              "type": "address"
            },
            {
              "internalType": "uint256",
              "name": "amount",
              "type": "uint256"
            },
            {
              "internalType": "uint256",
              "name": "timestamp",
              "type": "uint256"
            }
          ],
          "internalType": "struct Polymarket.AmountAdded[]",
          "name": "",
          "type": "tuple[]"
        },
        {
          "components": [
            {
              "internalType": "address",
              "name": "user",
              "type": "address"
            },
            {
              "internalType": "uint256",
              "name": "amount",
              "type": "uint256"
            },
            {
              "internalType": "uint256",
              "name": "timestamp",
              "type": "uint256"
            }
          ],
          "internalType": "struct Polymarket.AmountAdded[]",
          "name": "",
          "type": "tuple[]"
        }
      ],
      "stateMutability": "view",
      "type": "function",
      "constant": true
    },
    {
      "inputs": [
        {
          "internalType": "uint256",
          "name": "_questionId",
          "type": "uint256"
        },
        {
          "internalType": "bool",
          "name": "eventOutcome",
          "type": "bool"
        }
      ],
      "name": "distributeWinningAmount",
      "outputs": [],
      "stateMutability": "payable",
      "type": "function",
      "payable": true
    }
  ],
  "bytecode": "0x608060405260006003553480156200001657600080fd5b50604051620022353803806200223583398181016040528101906200003c91906200012e565b336000806101000a81548173ffffffffffffffffffffffffffffffffffffffff021916908373ffffffffffffffffffffffffffffffffffffffff16021790555080600160006101000a81548173ffffffffffffffffffffffffffffffffffffffff021916908373ffffffffffffffffffffffffffffffffffffffff1602179055505062000160565b600080fd5b600073ffffffffffffffffffffffffffffffffffffffff82169050919050565b6000620000f682620000c9565b9050919050565b6200010881620000e9565b81146200011457600080fd5b50565b6000815190506200012881620000fd565b92915050565b600060208284031215620001475762000146620000c4565b5b6000620001578482850162000117565b91505092915050565b6120c580620001706000396000f3fe60806040526004361061009c5760003560e01c806390b985901161006457806390b9859014610198578063b78d6c1d146101b4578063ba66b612146101f1578063bea5b9141461021a578063c71edee614610245578063da6b4db8146102615761009c565b806314dd5762146100a157806331b1b978146100df5780636faa22a514610126578063724ba40b146101515780638da5cb5b1461016d575b600080fd5b3480156100ad57600080fd5b506100c860048036038101906100c3919061155d565b61029e565b6040516100d69291906116cb565b60405180910390f35b3480156100eb57600080fd5b506101066004803603810190610101919061155d565b610450565b60405161011d9b9a999897969594939291906117d4565b60405180910390f35b34801561013257600080fd5b5061013b6106f7565b604051610148919061189b565b60405180910390f35b61016b600480360381019061016691906118e2565b61071d565b005b34801561017957600080fd5b50610182610f3a565b60405161018f919061189b565b60405180910390f35b6101b260048036038101906101ad919061155d565b610f5e565b005b3480156101c057600080fd5b506101db60048036038101906101d6919061155d565b6110b3565b6040516101e8919061189b565b60405180910390f35b3480156101fd57600080fd5b5061021860048036038101906102139190611a57565b6110f2565b005b34801561022657600080fd5b5061022f6112dc565b60405161023c9190611b2e565b60405180910390f35b61025f600480360381019061025a919061155d565b6112e2565b005b34801561026d57600080fd5b5061028860048036038101906102839190611b75565b611437565b6040516102959190611b2e565b60405180910390f35b6060806000600260008581526020019081526020016000209050806005018160060181805480602002602001604051908101604052809291908181526020016000905b8282101561037d57838290600052602060002090600302016040518060600160405290816000820160009054906101000a900473ffffffffffffffffffffffffffffffffffffffff1673ffffffffffffffffffffffffffffffffffffffff1673ffffffffffffffffffffffffffffffffffffffff16815260200160018201548152602001600282015481525050815260200190600101906102e1565b50505050915080805480602002602001604051908101604052809291908181526020016000905b8282101561044057838290600052602060002090600302016040518060600160405290816000820160009054906101000a900473ffffffffffffffffffffffffffffffffffffffff1673ffffffffffffffffffffffffffffffffffffffff1673ffffffffffffffffffffffffffffffffffffffff16815260200160018201548152602001600282015481525050815260200190600101906103a4565b5050505090509250925050915091565b600260205280600052604060002060009150905080600001549080600101805461047990611bd1565b80601f01602080910402602001604051908101604052809291908181526020018280546104a590611bd1565b80156104f25780601f106104c7576101008083540402835291602001916104f2565b820191906000526020600020905b8154815290600101906020018083116104d557829003601f168201915b5050505050908060020154908060030160009054906101000a900473ffffffffffffffffffffffffffffffffffffffff169080600401805461053390611bd1565b80601f016020809104026020016040519081016040528092919081815260200182805461055f90611bd1565b80156105ac5780601f10610581576101008083540402835291602001916105ac565b820191906000526020600020905b81548152906001019060200180831161058f57829003601f168201915b50505050509080600701549080600801549080600901549080600a0160009054906101000a900460ff169080600b0180546105e690611bd1565b80601f016020809104026020016040519081016040528092919081815260200182805461061290611bd1565b801561065f5780601f106106345761010080835404028352916020019161065f565b820191906000526020600020905b81548152906001019060200180831161064257829003601f168201915b50505050509080600c01805461067490611bd1565b80601f01602080910402602001604051908101604052809291908181526020018280546106a090611bd1565b80156106ed5780601f106106c2576101008083540402835291602001916106ed565b820191906000526020600020905b8154815290600101906020018083116106d057829003601f168201915b505050505090508b565b600160009054906101000a900473ffffffffffffffffffffffffffffffffffffffff1681565b60008054906101000a900473ffffffffffffffffffffffffffffffffffffffff1673ffffffffffffffffffffffffffffffffffffffff163373ffffffffffffffffffffffffffffffffffffffff16146107ab576040517f08c379a00000000000000000000000000000000000000000000000000000000081526004016107a290611c4f565b60405180910390fd5b600082146107ee576040517f08c379a00000000000000000000000000000000000000000000000000000000081526004016107e590611cbb565b60405180910390fd5b60006002600084815260200190815260200160002090508115610ba25760005b81600501805490508110156109f4576000826008015483600501838154811061083a57610839611cdb565b5b906000526020600020906003020160010154846009015461085b9190611d39565b6108659190611dc2565b905082600501828154811061087d5761087c611cdb565b5b9060005260206000209060030201600101548161089a9190611df3565b600460008560050185815481106108b4576108b3611cdb565b5b906000526020600020906003020160000160009054906101000a900473ffffffffffffffffffffffffffffffffffffffff1673ffffffffffffffffffffffffffffffffffffffff1673ffffffffffffffffffffffffffffffffffffffff168152602001908152602001600020600082825461092f9190611df3565b92505081905550600583600501838154811061094e5761094d611cdb565b5b906000526020600020906003020160000160009054906101000a900473ffffffffffffffffffffffffffffffffffffffff169080600181540180825580915050600190039060005260206000200160009091909190916101000a81548173ffffffffffffffffffffffffffffffffffffffff021916908373ffffffffffffffffffffffffffffffffffffffff1602179055505080806109ec90611e49565b91505061080e565b5060005b600580549050811015610b8e57600060058281548110610a1b57610a1a611cdb565b5b9060005260206000200160009054906101000a900473ffffffffffffffffffffffffffffffffffffffff169050600160009054906101000a900473ffffffffffffffffffffffffffffffffffffffff1673ffffffffffffffffffffffffffffffffffffffff1663a9059cbb82600460008573ffffffffffffffffffffffffffffffffffffffff1673ffffffffffffffffffffffffffffffffffffffff168152602001908152602001600020546040518363ffffffff1660e01b8152600401610ae4929190611ef1565b602060405180830381600087803b158015610afe57600080fd5b505af1158015610b12573d6000803e3d6000fd5b505050506040513d601f19601f82011682018060405250810190610b369190611f2f565b50600460008273ffffffffffffffffffffffffffffffffffffffff1673ffffffffffffffffffffffffffffffffffffffff16815260200190815260200160002060009055508080610b8690611e49565b9150506109f8565b5060056000610b9d919061144f565b610f35565b60005b8160060180549050811015610d8b5760008260090154836006018381548110610bd157610bd0611cdb565b5b9060005260206000209060030201600101548460080154610bf29190611d39565b610bfc9190611dc2565b9050826006018281548110610c1457610c13611cdb565b5b90600052602060002090600302016001015481610c319190611df3565b60046000856006018581548110610c4b57610c4a611cdb565b5b906000526020600020906003020160000160009054906101000a900473ffffffffffffffffffffffffffffffffffffffff1673ffffffffffffffffffffffffffffffffffffffff1673ffffffffffffffffffffffffffffffffffffffff1681526020019081526020016000206000828254610cc69190611df3565b925050819055506005836006018381548110610ce557610ce4611cdb565b5b906000526020600020906003020160000160009054906101000a900473ffffffffffffffffffffffffffffffffffffffff169080600181540180825580915050600190039060005260206000200160009091909190916101000a81548173ffffffffffffffffffffffffffffffffffffffff021916908373ffffffffffffffffffffffffffffffffffffffff160217905550508080610d8390611e49565b915050610ba5565b5060005b600580549050811015610f2557600060058281548110610db257610db1611cdb565b5b9060005260206000200160009054906101000a900473ffffffffffffffffffffffffffffffffffffffff169050600160009054906101000a900473ffffffffffffffffffffffffffffffffffffffff1673ffffffffffffffffffffffffffffffffffffffff1663a9059cbb82600460008573ffffffffffffffffffffffffffffffffffffffff1673ffffffffffffffffffffffffffffffffffffffff168152602001908152602001600020546040518363ffffffff1660e01b8152600401610e7b929190611ef1565b602060405180830381600087803b158015610e9557600080fd5b505af1158015610ea9573d6000803e3d6000fd5b505050506040513d601f19601f82011682018060405250810190610ecd9190611f2f565b50600460008273ffffffffffffffffffffffffffffffffffffffff1673ffffffffffffffffffffffffffffffffffffffff16815260200190815260200160002060009055508080610f1d90611e49565b915050610d8f565b5060056000610f34919061144f565b5b505050565b60008054906101000a900473ffffffffffffffffffffffffffffffffffffffff1681565b60008114610fa1576040517f08c379a0000000000000000000000000000000000000000000000000000000008152600401610f9890611fa8565b60405180910390fd5b6000600260008381526020019081526020016000209050600060405180606001604052803373ffffffffffffffffffffffffffffffffffffffff168152602001348152602001428152509050348260080160008282546110019190611df3565b925050819055503482600701600082825461101c9190611df3565b925050819055508160050181908060018154018082558091505060019003906000526020600020906003020160009091909190915060008201518160000160006101000a81548173ffffffffffffffffffffffffffffffffffffffff021916908373ffffffffffffffffffffffffffffffffffffffff16021790555060208201518160010155604082015181600201555050505050565b600581815481106110c357600080fd5b906000526020600020016000915054906101000a900473ffffffffffffffffffffffffffffffffffffffff1681565b60008054906101000a900473ffffffffffffffffffffffffffffffffffffffff1673ffffffffffffffffffffffffffffffffffffffff163373ffffffffffffffffffffffffffffffffffffffff1614611180576040517f08c379a000000000000000000000000000000000000000000000000000000000815260040161117790611c4f565b60405180910390fd5b600042905060006002600060035481526020019081526020016000209050600360008154809291906111b190611e49565b919050558160000181905550858160010190805190602001906111d5929190611470565b50818160020181905550338160030160006101000a81548173ffffffffffffffffffffffffffffffffffffffff021916908373ffffffffffffffffffffffffffffffffffffffff1602179055508481600401908051906020019061123a929190611470565b506000816007018190555060008160080181905550600081600901819055508381600b019080519060200190611271929190611470565b508281600c01908051906020019061128a929190611470565b507fd8960286cb5486e9a27d200d805d06e2eeda2fe2bd67967e36b466ecd440ac996003548784338960008060006040516112cc989796959493929190612003565b60405180910390a1505050505050565b60035481565b60008114611325576040517f08c379a000000000000000000000000000000000000000000000000000000000815260040161131c90611fa8565b60405180910390fd5b6000600260008381526020019081526020016000209050600060405180606001604052803373ffffffffffffffffffffffffffffffffffffffff168152602001348152602001428152509050348260090160008282546113859190611df3565b92505081905550348260070160008282546113a09190611df3565b925050819055508160060181908060018154018082558091505060019003906000526020600020906003020160009091909190915060008201518160000160006101000a81548173ffffffffffffffffffffffffffffffffffffffff021916908373ffffffffffffffffffffffffffffffffffffffff16021790555060208201518160010155604082015181600201555050505050565b60046020528060005260406000206000915090505481565b508054600082559060005260206000209081019061146d91906114f6565b50565b82805461147c90611bd1565b90600052602060002090601f01602090048101928261149e57600085556114e5565b82601f106114b757805160ff19168380011785556114e5565b828001600101855582156114e5579182015b828111156114e45782518255916020019190600101906114c9565b5b5090506114f291906114f6565b5090565b5b8082111561150f5760008160009055506001016114f7565b5090565b6000604051905090565b600080fd5b600080fd5b6000819050919050565b61153a81611527565b811461154557600080fd5b50565b60008135905061155781611531565b92915050565b6000602082840312156115735761157261151d565b5b600061158184828501611548565b91505092915050565b600081519050919050565b600082825260208201905092915050565b6000819050602082019050919050565b600073ffffffffffffffffffffffffffffffffffffffff82169050919050565b60006115e1826115b6565b9050919050565b6115f1816115d6565b82525050565b61160081611527565b82525050565b60608201600082015161161c60008501826115e8565b50602082015161162f60208501826115f7565b50604082015161164260408501826115f7565b50505050565b60006116548383611606565b60608301905092915050565b6000602082019050919050565b60006116788261158a565b6116828185611595565b935061168d836115a6565b8060005b838110156116be5781516116a58882611648565b97506116b083611660565b925050600181019050611691565b5085935050505092915050565b600060408201905081810360008301526116e5818561166d565b905081810360208301526116f9818461166d565b90509392505050565b61170b81611527565b82525050565b600081519050919050565b600082825260208201905092915050565b60005b8381101561174b578082015181840152602081019050611730565b8381111561175a576000848401525b50505050565b6000601f19601f8301169050919050565b600061177c82611711565b611786818561171c565b935061179681856020860161172d565b61179f81611760565b840191505092915050565b6117b3816115d6565b82525050565b60008115159050919050565b6117ce816117b9565b82525050565b6000610160820190506117ea600083018e611702565b81810360208301526117fc818d611771565b905061180b604083018c611702565b611818606083018b6117aa565b818103608083015261182a818a611771565b905061183960a0830189611702565b61184660c0830188611702565b61185360e0830187611702565b6118616101008301866117c5565b8181036101208301526118748185611771565b90508181036101408301526118898184611771565b90509c9b505050505050505050505050565b60006020820190506118b060008301846117aa565b92915050565b6118bf816117b9565b81146118ca57600080fd5b50565b6000813590506118dc816118b6565b92915050565b600080604083850312156118f9576118f861151d565b5b600061190785828601611548565b9250506020611918858286016118cd565b9150509250929050565b600080fd5b600080fd5b7f4e487b7100000000000000000000000000000000000000000000000000000000600052604160045260246000fd5b61196482611760565b810181811067ffffffffffffffff821117156119835761198261192c565b5b80604052505050565b6000611996611513565b90506119a2828261195b565b919050565b600067ffffffffffffffff8211156119c2576119c161192c565b5b6119cb82611760565b9050602081019050919050565b82818337600083830152505050565b60006119fa6119f5846119a7565b61198c565b905082815260208101848484011115611a1657611a15611927565b5b611a218482856119d8565b509392505050565b600082601f830112611a3e57611a3d611922565b5b8135611a4e8482602086016119e7565b91505092915050565b60008060008060808587031215611a7157611a7061151d565b5b600085013567ffffffffffffffff811115611a8f57611a8e611522565b5b611a9b87828801611a29565b945050602085013567ffffffffffffffff811115611abc57611abb611522565b5b611ac887828801611a29565b935050604085013567ffffffffffffffff811115611ae957611ae8611522565b5b611af587828801611a29565b925050606085013567ffffffffffffffff811115611b1657611b15611522565b5b611b2287828801611a29565b91505092959194509250565b6000602082019050611b436000830184611702565b92915050565b611b52816115d6565b8114611b5d57600080fd5b50565b600081359050611b6f81611b49565b92915050565b600060208284031215611b8b57611b8a61151d565b5b6000611b9984828501611b60565b91505092915050565b7f4e487b7100000000000000000000000000000000000000000000000000000000600052602260045260246000fd5b60006002820490506001821680611be957607f821691505b60208210811415611bfd57611bfc611ba2565b5b50919050565b7f556e617574686f72697a65640000000000000000000000000000000000000000600082015250565b6000611c39600c8361171c565b9150611c4482611c03565b602082019050919050565b60006020820190508181036000830152611c6881611c2c565b9050919050565b7f5175657374696f6e2049442063616e6e6f7420626520656d7074790000000000600082015250565b6000611ca5601b8361171c565b9150611cb082611c6f565b602082019050919050565b60006020820190508181036000830152611cd481611c98565b9050919050565b7f4e487b7100000000000000000000000000000000000000000000000000000000600052603260045260246000fd5b7f4e487b7100000000000000000000000000000000000000000000000000000000600052601160045260246000fd5b6000611d4482611527565b9150611d4f83611527565b9250817fffffffffffffffffffffffffffffffffffffffffffffffffffffffffffffffff0483118215151615611d8857611d87611d0a565b5b828202905092915050565b7f4e487b7100000000000000000000000000000000000000000000000000000000600052601260045260246000fd5b6000611dcd82611527565b9150611dd883611527565b925082611de857611de7611d93565b5b828204905092915050565b6000611dfe82611527565b9150611e0983611527565b9250827fffffffffffffffffffffffffffffffffffffffffffffffffffffffffffffffff03821115611e3e57611e3d611d0a565b5b828201905092915050565b6000611e5482611527565b91507fffffffffffffffffffffffffffffffffffffffffffffffffffffffffffffffff821415611e8757611e86611d0a565b5b600182019050919050565b6000819050919050565b6000611eb7611eb2611ead846115b6565b611e92565b6115b6565b9050919050565b6000611ec982611e9c565b9050919050565b6000611edb82611ebe565b9050919050565b611eeb81611ed0565b82525050565b6000604082019050611f066000830185611ee2565b611f136020830184611702565b9392505050565b600081519050611f29816118b6565b92915050565b600060208284031215611f4557611f4461151d565b5b6000611f5384828501611f1a565b91505092915050565b7f5175657374696f6e2049442063616e6e6f74206265206e756c6c000000000000600082015250565b6000611f92601a8361171c565b9150611f9d82611f5c565b602082019050919050565b60006020820190508181036000830152611fc181611f85565b9050919050565b6000819050919050565b6000611fed611fe8611fe384611fc8565b611e92565b611527565b9050919050565b611ffd81611fd2565b82525050565b600061010082019050612019600083018b611702565b818103602083015261202b818a611771565b905061203a6040830189611702565b61204760608301886117aa565b81810360808301526120598187611771565b905061206860a0830186611ff4565b61207560c0830185611ff4565b61208260e0830184611ff4565b999850505050505050505056fea2646970667358221220fc0b7c0c8198a18642e2323cd9edb631d7b71afbe8e27792c351d5cd7407594664736f6c63430008090033",
  "immutableReferences": {},
  "source": "// SPDX-License-Identifier: MIT\npragma solidity ^0.8.6;\nimport \"@openzeppelin/contracts/token/ERC20/ERC20.sol\";\n\ncontract Polymarket {\n    address public owner;\n    address public polyToken;\n\n    mapping(uint256 => Questions) public questions;\n    uint256 public totalQuestions = 0;\n\n    constructor(address _polyToken) {\n        owner = msg.sender;\n        polyToken = _polyToken;\n    }\n\n    struct Questions {\n        uint256 id;\n        string question;\n        uint256 timestamp;\n        address createdBy;\n        string creatorImageHash;\n        AmountAdded[] yesCount;\n        AmountAdded[] noCount;\n        uint256 totalAmount;\n        uint256 totalYesAmount;\n        uint256 totalNoAmount;\n        bool eventCompleted;\n        string description;\n        string resolverUrl;\n    }\n\n    struct AmountAdded {\n        address user;\n        uint256 amount;\n        uint256 timestamp;\n    }\n\n    mapping(address => uint256) public winningAmount;\n    address[] public winningAddresses;\n\n    event QuestionCreated(\n        uint256 id,\n        string question,\n        uint256 timestamp,\n        address createdBy,\n        string creatorImageHash,\n        uint256 totalAmount,\n        uint256 totalYesAmount,\n        uint256 totalNoAmount\n    );\n\n    function createQuestion(\n        string memory _question,\n        string memory _creatorImageHash,\n        string memory _description,\n        string memory _resolverUrl\n    ) public {\n        require(msg.sender == owner, \"Unauthorized\");\n\n        uint256 timestamp = block.timestamp;\n\n        Questions storage question = questions[totalQuestions];\n\n        question.id = totalQuestions++;\n        question.question = _question;\n        question.timestamp = timestamp;\n        question.createdBy = msg.sender;\n        question.creatorImageHash = _creatorImageHash;\n        question.totalAmount = 0;\n        question.totalYesAmount = 0;\n        question.totalNoAmount = 0;\n        question.description = _description;\n        question.resolverUrl = _resolverUrl;\n\n        emit QuestionCreated(\n            totalQuestions,\n            _question,\n            timestamp,\n            msg.sender,\n            _creatorImageHash,\n            0,\n            0,\n            0\n        );\n    }\n\n    function addYesBet(uint256 _questionId) public payable {\n        require(_questionId == 0, \"Question ID cannot be null\");\n        Questions storage question = questions[_questionId];\n        AmountAdded memory amountAdded = AmountAdded(\n            msg.sender,\n            msg.value,\n            block.timestamp\n        );\n\n        question.totalYesAmount += msg.value;\n        question.totalAmount += msg.value;\n        question.yesCount.push(amountAdded);\n    }\n\n    function addNoBet(uint256 _questionId) public payable {\n        require(_questionId == 0, \"Question ID cannot be null\");\n        Questions storage question = questions[_questionId];\n        AmountAdded memory amountAdded = AmountAdded(\n            msg.sender,\n            msg.value,\n            block.timestamp\n        );\n\n        question.totalNoAmount += msg.value;\n        question.totalAmount += msg.value;\n        question.noCount.push(amountAdded);\n    }\n\n    function getGraphData(uint256 _questionId)\n        public\n        view\n        returns (AmountAdded[] memory, AmountAdded[] memory)\n    {\n        Questions storage question = questions[_questionId];\n        return (question.yesCount, question.noCount);\n    }\n\n    function distributeWinningAmount(uint256 _questionId, bool eventOutcome)\n        public\n        payable\n    {\n        require(msg.sender == owner, \"Unauthorized\");\n        require(_questionId == 0, \"Question ID cannot be empty\");\n\n        Questions storage question = questions[_questionId];\n        if (eventOutcome) {\n            for (uint256 i = 0; i < question.yesCount.length; i++) {\n                uint256 amount = (question.totalNoAmount *\n                    question.yesCount[i].amount) / question.totalYesAmount;\n                winningAmount[question.yesCount[i].user] += (amount +\n                    question.yesCount[i].amount);\n                winningAddresses.push(question.yesCount[i].user);\n            }\n\n            for (uint256 i = 0; i < winningAddresses.length; i++) {\n                address payable _address = payable(winningAddresses[i]);\n                ERC20(polyToken).transfer(_address, winningAmount[_address]);\n                delete winningAmount[_address];\n            }\n            delete winningAddresses;\n        } else {\n            for (uint256 i = 0; i < question.noCount.length; i++) {\n                uint256 amount = (question.totalYesAmount *\n                    question.noCount[i].amount) / question.totalNoAmount;\n                winningAmount[question.noCount[i].user] += (amount +\n                    question.noCount[i].amount);\n                winningAddresses.push(question.noCount[i].user);\n            }\n\n            for (uint256 i = 0; i < winningAddresses.length; i++) {\n                address payable _address = payable(winningAddresses[i]);\n                ERC20(polyToken).transfer(_address, winningAmount[_address]);\n                delete winningAmount[_address];\n            }\n            delete winningAddresses;\n        }\n    }\n}\n\n// \"Will Modi win?\", \"abcd\", \"xyz\", \"https;//google.com\"\n",
  "sourcePath": "/Users/viralsangani/Desktop/polymarket/contracts/Polymarket.sol",
  "compiler": {
    "name": "solc",
    "version": "0.8.9+commit.e5eed63a.Emscripten.clang"
  },
  "schemaVersion": "3.4.1",
  "updatedAt": "2021-11-02T10:43:55.405Z",
  "networkType": "ethereum",
  "devdoc": {
    "kind": "dev",
    "methods": {},
    "version": 1
  },
  "userdoc": {
    "kind": "user",
    "methods": {},
    "version": 1
  }
}