{
  "contractName": "Polymarket",
  "abi": [
    {
      "inputs": [
        {
          "internalType": "address",
          "name": "_polyToken",
          "type": "address"
        }
      ],
      "stateMutability": "nonpayable",
      "type": "constructor"
    },
    {
      "anonymous": false,
      "inputs": [
        {
          "indexed": false,
          "internalType": "uint256",
          "name": "id",
          "type": "uint256"
        },
        {
          "indexed": false,
          "internalType": "string",
          "name": "question",
          "type": "string"
        },
        {
          "indexed": false,
          "internalType": "uint256",
          "name": "timestamp",
          "type": "uint256"
        },
        {
          "indexed": false,
          "internalType": "address",
          "name": "createdBy",
          "type": "address"
        },
        {
          "indexed": false,
          "internalType": "string",
          "name": "creatorImageHash",
          "type": "string"
        },
        {
          "indexed": false,
          "internalType": "uint256",
          "name": "totalAmount",
          "type": "uint256"
        },
        {
          "indexed": false,
          "internalType": "uint256",
          "name": "totalYesAmount",
          "type": "uint256"
        },
        {
          "indexed": false,
          "internalType": "uint256",
          "name": "totalNoAmount",
          "type": "uint256"
        }
      ],
      "name": "QuestionCreated",
      "type": "event"
    },
    {
      "inputs": [],
      "name": "owner",
      "outputs": [
        {
          "internalType": "address",
          "name": "",
          "type": "address"
        }
      ],
      "stateMutability": "view",
      "type": "function",
      "constant": true
    },
    {
      "inputs": [],
      "name": "polyToken",
      "outputs": [
        {
          "internalType": "address",
          "name": "",
          "type": "address"
        }
      ],
      "stateMutability": "view",
      "type": "function",
      "constant": true
    },
    {
      "inputs": [
        {
          "internalType": "uint256",
          "name": "",
          "type": "uint256"
        }
      ],
      "name": "questions",
      "outputs": [
        {
          "internalType": "uint256",
          "name": "id",
          "type": "uint256"
        },
        {
          "internalType": "string",
          "name": "question",
          "type": "string"
        },
        {
          "internalType": "uint256",
          "name": "timestamp",
          "type": "uint256"
        },
        {
          "internalType": "uint256",
          "name": "endTimestamp",
          "type": "uint256"
        },
        {
          "internalType": "address",
          "name": "createdBy",
          "type": "address"
        },
        {
          "internalType": "string",
          "name": "creatorImageHash",
          "type": "string"
        },
        {
          "internalType": "uint256",
          "name": "totalAmount",
          "type": "uint256"
        },
        {
          "internalType": "uint256",
          "name": "totalYesAmount",
          "type": "uint256"
        },
        {
          "internalType": "uint256",
          "name": "totalNoAmount",
          "type": "uint256"
        },
        {
          "internalType": "bool",
          "name": "eventCompleted",
          "type": "bool"
        },
        {
          "internalType": "string",
          "name": "description",
          "type": "string"
        },
        {
          "internalType": "string",
          "name": "resolverUrl",
          "type": "string"
        }
      ],
      "stateMutability": "view",
      "type": "function",
      "constant": true
    },
    {
      "inputs": [],
      "name": "totalQuestions",
      "outputs": [
        {
          "internalType": "uint256",
          "name": "",
          "type": "uint256"
        }
      ],
      "stateMutability": "view",
      "type": "function",
      "constant": true
    },
    {
      "inputs": [
        {
          "internalType": "uint256",
          "name": "",
          "type": "uint256"
        }
      ],
      "name": "winningAddresses",
      "outputs": [
        {
          "internalType": "address",
          "name": "",
          "type": "address"
        }
      ],
      "stateMutability": "view",
      "type": "function",
      "constant": true
    },
    {
      "inputs": [
        {
          "internalType": "address",
          "name": "",
          "type": "address"
        }
      ],
      "name": "winningAmount",
      "outputs": [
        {
          "internalType": "uint256",
          "name": "",
          "type": "uint256"
        }
      ],
      "stateMutability": "view",
      "type": "function",
      "constant": true
    },
    {
      "inputs": [
        {
          "internalType": "string",
          "name": "_question",
          "type": "string"
        },
        {
          "internalType": "string",
          "name": "_creatorImageHash",
          "type": "string"
        },
        {
          "internalType": "string",
          "name": "_description",
          "type": "string"
        },
        {
          "internalType": "string",
          "name": "_resolverUrl",
          "type": "string"
        },
        {
          "internalType": "uint256",
          "name": "_endTimestamp",
          "type": "uint256"
        }
      ],
      "name": "createQuestion",
      "outputs": [],
      "stateMutability": "nonpayable",
      "type": "function"
    },
    {
      "inputs": [
        {
          "internalType": "uint256",
          "name": "_questionId",
          "type": "uint256"
        },
        {
          "internalType": "uint256",
          "name": "_value",
          "type": "uint256"
        }
      ],
      "name": "addYesBet",
      "outputs": [],
      "stateMutability": "payable",
      "type": "function",
      "payable": true
    },
    {
      "inputs": [
        {
          "internalType": "uint256",
          "name": "_questionId",
          "type": "uint256"
        },
        {
          "internalType": "uint256",
          "name": "_value",
          "type": "uint256"
        }
      ],
      "name": "addNoBet",
      "outputs": [],
      "stateMutability": "payable",
      "type": "function",
      "payable": true
    },
    {
      "inputs": [
        {
          "internalType": "uint256",
          "name": "_questionId",
          "type": "uint256"
        }
      ],
      "name": "getGraphData",
      "outputs": [
        {
          "components": [
            {
              "internalType": "address",
              "name": "user",
              "type": "address"
            },
            {
              "internalType": "uint256",
              "name": "amount",
              "type": "uint256"
            },
            {
              "internalType": "uint256",
              "name": "timestamp",
              "type": "uint256"
            }
          ],
          "internalType": "struct Polymarket.AmountAdded[]",
          "name": "",
          "type": "tuple[]"
        },
        {
          "components": [
            {
              "internalType": "address",
              "name": "user",
              "type": "address"
            },
            {
              "internalType": "uint256",
              "name": "amount",
              "type": "uint256"
            },
            {
              "internalType": "uint256",
              "name": "timestamp",
              "type": "uint256"
            }
          ],
          "internalType": "struct Polymarket.AmountAdded[]",
          "name": "",
          "type": "tuple[]"
        }
      ],
      "stateMutability": "view",
      "type": "function",
      "constant": true
    },
    {
      "inputs": [
        {
          "internalType": "uint256",
          "name": "_questionId",
          "type": "uint256"
        },
        {
          "internalType": "bool",
          "name": "eventOutcome",
          "type": "bool"
        }
      ],
      "name": "distributeWinningAmount",
      "outputs": [],
      "stateMutability": "payable",
      "type": "function",
      "payable": true
    },
    {
      "inputs": [],
      "name": "isAdmin",
      "outputs": [
        {
          "internalType": "bool",
          "name": "",
          "type": "bool"
        }
      ],
      "stateMutability": "view",
      "type": "function",
      "constant": true
    },
    {
      "inputs": [],
      "name": "getBal",
      "outputs": [
        {
          "internalType": "uint256",
          "name": "",
          "type": "uint256"
        }
      ],
      "stateMutability": "view",
      "type": "function",
      "constant": true
    }
  ],
  "bytecode": "0x608060405260006002553480156200001657600080fd5b506040516200247f3803806200247f83398181016040528101906200003c91906200012e565b336000806101000a81548173ffffffffffffffffffffffffffffffffffffffff021916908373ffffffffffffffffffffffffffffffffffffffff16021790555080600160006101000a81548173ffffffffffffffffffffffffffffffffffffffff021916908373ffffffffffffffffffffffffffffffffffffffff1602179055505062000160565b600080fd5b600073ffffffffffffffffffffffffffffffffffffffff82169050919050565b6000620000f682620000c9565b9050919050565b6200010881620000e9565b81146200011457600080fd5b50565b6000815190506200012881620000fd565b92915050565b600060208284031215620001475762000146620000c4565b5b6000620001578482850162000117565b91505092915050565b61230f80620001706000396000f3fe6080604052600436106100c25760003560e01c80638da5cb5b1161007f578063bea5b91411610059578063bea5b9141461027b578063bf01fe00146102a6578063da6b4db8146102c2578063eb3f75e2146102ff576100c2565b80638da5cb5b146101e8578063b6db75a014610213578063b78d6c1d1461023e576100c2565b806314dd5762146100c757806319a1cafe1461010557806325caa2621461012e57806331b1b978146101595780636faa22a5146101a1578063724ba40b146101cc575b600080fd5b3480156100d357600080fd5b506100ee60048036038101906100e9919061175e565b61031b565b6040516100fc9291906118cc565b60405180910390f35b34801561011157600080fd5b5061012c60048036038101906101279190611a49565b6104cd565b005b34801561013a57600080fd5b506101436106c1565b6040516101509190611b43565b60405180910390f35b34801561016557600080fd5b50610180600480360381019061017b919061175e565b6106c9565b6040516101989c9b9a99989796959493929190611c10565b60405180910390f35b3480156101ad57600080fd5b506101b6610976565b6040516101c39190611ce6565b60405180910390f35b6101e660048036038101906101e19190611d2d565b61099c565b005b3480156101f457600080fd5b506101fd611175565b60405161020a9190611ce6565b60405180910390f35b34801561021f57600080fd5b50610228611199565b6040516102359190611d6d565b60405180910390f35b34801561024a57600080fd5b506102656004803603810190610260919061175e565b611201565b6040516102729190611ce6565b60405180910390f35b34801561028757600080fd5b50610290611240565b60405161029d9190611b43565b60405180910390f35b6102c060048036038101906102bb9190611d88565b611246565b005b3480156102ce57600080fd5b506102e960048036038101906102e49190611df4565b61143f565b6040516102f69190611b43565b60405180910390f35b61031960048036038101906103149190611d88565b611457565b005b6060806000600360008581526020019081526020016000209050806006018160070181805480602002602001604051908101604052809291908181526020016000905b828210156103fa57838290600052602060002090600302016040518060600160405290816000820160009054906101000a900473ffffffffffffffffffffffffffffffffffffffff1673ffffffffffffffffffffffffffffffffffffffff1673ffffffffffffffffffffffffffffffffffffffff168152602001600182015481526020016002820154815250508152602001906001019061035e565b50505050915080805480602002602001604051908101604052809291908181526020016000905b828210156104bd57838290600052602060002090600302016040518060600160405290816000820160009054906101000a900473ffffffffffffffffffffffffffffffffffffffff1673ffffffffffffffffffffffffffffffffffffffff1673ffffffffffffffffffffffffffffffffffffffff1681526020016001820154815260200160028201548152505081526020019060010190610421565b5050505090509250925050915091565b60008054906101000a900473ffffffffffffffffffffffffffffffffffffffff1673ffffffffffffffffffffffffffffffffffffffff163373ffffffffffffffffffffffffffffffffffffffff161461055b576040517f08c379a000000000000000000000000000000000000000000000000000000000815260040161055290611e6d565b60405180910390fd5b6000429050600060036000600254815260200190815260200160002090506002600081548092919061058c90611ebc565b919050558160000181905550868160010190805190602001906105b0929190611650565b50818160020181905550338160040160006101000a81548173ffffffffffffffffffffffffffffffffffffffff021916908373ffffffffffffffffffffffffffffffffffffffff16021790555085816005019080519060200190610615929190611650565b506000816008018190555060008160090181905550600081600a01819055508481600c01908051906020019061064c929190611650565b508381600d019080519060200190610665929190611650565b508281600301819055507fd8960286cb5486e9a27d200d805d06e2eeda2fe2bd67967e36b466ecd440ac996002548884338a60008060006040516106b0989796959493929190611f4a565b60405180910390a150505050505050565b600047905090565b60036020528060005260406000206000915090508060000154908060010180546106f290612005565b80601f016020809104026020016040519081016040528092919081815260200182805461071e90612005565b801561076b5780601f106107405761010080835404028352916020019161076b565b820191906000526020600020905b81548152906001019060200180831161074e57829003601f168201915b5050505050908060020154908060030154908060040160009054906101000a900473ffffffffffffffffffffffffffffffffffffffff16908060050180546107b290612005565b80601f01602080910402602001604051908101604052809291908181526020018280546107de90612005565b801561082b5780601f106108005761010080835404028352916020019161082b565b820191906000526020600020905b81548152906001019060200180831161080e57829003601f168201915b50505050509080600801549080600901549080600a01549080600b0160009054906101000a900460ff169080600c01805461086590612005565b80601f016020809104026020016040519081016040528092919081815260200182805461089190612005565b80156108de5780601f106108b3576101008083540402835291602001916108de565b820191906000526020600020905b8154815290600101906020018083116108c157829003601f168201915b50505050509080600d0180546108f390612005565b80601f016020809104026020016040519081016040528092919081815260200182805461091f90612005565b801561096c5780601f106109415761010080835404028352916020019161096c565b820191906000526020600020905b81548152906001019060200180831161094f57829003601f168201915b505050505090508c565b600160009054906101000a900473ffffffffffffffffffffffffffffffffffffffff1681565b60008054906101000a900473ffffffffffffffffffffffffffffffffffffffff1673ffffffffffffffffffffffffffffffffffffffff163373ffffffffffffffffffffffffffffffffffffffff1614610a2a576040517f08c379a0000000000000000000000000000000000000000000000000000000008152600401610a2190611e6d565b60405180910390fd5b60006003600084815260200190815260200160002090508115610dcf5760005b8160060180549050811015610c305760008260090154836006018381548110610a7657610a75612037565b5b90600052602060002090600302016001015484600a0154610a979190612066565b610aa191906120ef565b9050826006018281548110610ab957610ab8612037565b5b90600052602060002090600302016001015481610ad69190612120565b60046000856006018581548110610af057610aef612037565b5b906000526020600020906003020160000160009054906101000a900473ffffffffffffffffffffffffffffffffffffffff1673ffffffffffffffffffffffffffffffffffffffff1673ffffffffffffffffffffffffffffffffffffffff1681526020019081526020016000206000828254610b6b9190612120565b925050819055506005836006018381548110610b8a57610b89612037565b5b906000526020600020906003020160000160009054906101000a900473ffffffffffffffffffffffffffffffffffffffff169080600181540180825580915050600190039060005260206000200160009091909190916101000a81548173ffffffffffffffffffffffffffffffffffffffff021916908373ffffffffffffffffffffffffffffffffffffffff160217905550508080610c2890611ebc565b915050610a4a565b5060005b600580549050811015610dbb57600060058281548110610c5757610c56612037565b5b9060005260206000200160009054906101000a900473ffffffffffffffffffffffffffffffffffffffff169050600160009054906101000a900473ffffffffffffffffffffffffffffffffffffffff1673ffffffffffffffffffffffffffffffffffffffff1663a9059cbb82600460008573ffffffffffffffffffffffffffffffffffffffff1673ffffffffffffffffffffffffffffffffffffffff168152602001908152602001600020546040518363ffffffff1660e01b8152600401610d209291906121cb565b6020604051808303816000875af1158015610d3f573d6000803e3d6000fd5b505050506040513d601f19601f82011682018060405250810190610d639190612209565b50600460008273ffffffffffffffffffffffffffffffffffffffff1673ffffffffffffffffffffffffffffffffffffffff16815260200190815260200160002060009055508080610db390611ebc565b915050610c34565b5060056000610dca91906116d6565b611153565b60005b8160070180549050811015610fb857600082600a0154836007018381548110610dfe57610dfd612037565b5b9060005260206000209060030201600101548460090154610e1f9190612066565b610e2991906120ef565b9050826007018281548110610e4157610e40612037565b5b90600052602060002090600302016001015481610e5e9190612120565b60046000856007018581548110610e7857610e77612037565b5b906000526020600020906003020160000160009054906101000a900473ffffffffffffffffffffffffffffffffffffffff1673ffffffffffffffffffffffffffffffffffffffff1673ffffffffffffffffffffffffffffffffffffffff1681526020019081526020016000206000828254610ef39190612120565b925050819055506005836007018381548110610f1257610f11612037565b5b906000526020600020906003020160000160009054906101000a900473ffffffffffffffffffffffffffffffffffffffff169080600181540180825580915050600190039060005260206000200160009091909190916101000a81548173ffffffffffffffffffffffffffffffffffffffff021916908373ffffffffffffffffffffffffffffffffffffffff160217905550508080610fb090611ebc565b915050610dd2565b5060005b60058054905081101561114357600060058281548110610fdf57610fde612037565b5b9060005260206000200160009054906101000a900473ffffffffffffffffffffffffffffffffffffffff169050600160009054906101000a900473ffffffffffffffffffffffffffffffffffffffff1673ffffffffffffffffffffffffffffffffffffffff1663a9059cbb82600460008573ffffffffffffffffffffffffffffffffffffffff1673ffffffffffffffffffffffffffffffffffffffff168152602001908152602001600020546040518363ffffffff1660e01b81526004016110a89291906121cb565b6020604051808303816000875af11580156110c7573d6000803e3d6000fd5b505050506040513d601f19601f820116820180604052508101906110eb9190612209565b50600460008273ffffffffffffffffffffffffffffffffffffffff1673ffffffffffffffffffffffffffffffffffffffff1681526020019081526020016000206000905550808061113b90611ebc565b915050610fbc565b506005600061115291906116d6565b5b600181600b0160006101000a81548160ff021916908315150217905550505050565b60008054906101000a900473ffffffffffffffffffffffffffffffffffffffff1681565b60008060009054906101000a900473ffffffffffffffffffffffffffffffffffffffff1673ffffffffffffffffffffffffffffffffffffffff163373ffffffffffffffffffffffffffffffffffffffff1614156111f957600190506111fe565b600090505b90565b6005818154811061121157600080fd5b906000526020600020016000915054906101000a900473ffffffffffffffffffffffffffffffffffffffff1681565b60025481565b60008214611289576040517f08c379a000000000000000000000000000000000000000000000000000000000815260040161128090612282565b60405180910390fd5b6000600360008481526020019081526020016000209050600160009054906101000a900473ffffffffffffffffffffffffffffffffffffffff1673ffffffffffffffffffffffffffffffffffffffff166323b872dd3330856040518463ffffffff1660e01b81526004016112ff939291906122a2565b6020604051808303816000875af115801561131e573d6000803e3d6000fd5b505050506040513d601f19601f820116820180604052508101906113429190612209565b50600060405180606001604052803373ffffffffffffffffffffffffffffffffffffffff1681526020018481526020014281525090508282600a01600082825461138c9190612120565b92505081905550828260080160008282546113a79190612120565b925050819055508160070181908060018154018082558091505060019003906000526020600020906003020160009091909190915060008201518160000160006101000a81548173ffffffffffffffffffffffffffffffffffffffff021916908373ffffffffffffffffffffffffffffffffffffffff1602179055506020820151816001015560408201518160020155505050505050565b60046020528060005260406000206000915090505481565b6000821461149a576040517f08c379a000000000000000000000000000000000000000000000000000000000815260040161149190612282565b60405180910390fd5b6000600360008481526020019081526020016000209050600160009054906101000a900473ffffffffffffffffffffffffffffffffffffffff1673ffffffffffffffffffffffffffffffffffffffff166323b872dd3330856040518463ffffffff1660e01b8152600401611510939291906122a2565b6020604051808303816000875af115801561152f573d6000803e3d6000fd5b505050506040513d601f19601f820116820180604052508101906115539190612209565b50600060405180606001604052803373ffffffffffffffffffffffffffffffffffffffff1681526020018481526020014281525090508282600901600082825461159d9190612120565b92505081905550828260080160008282546115b89190612120565b925050819055508160060181908060018154018082558091505060019003906000526020600020906003020160009091909190915060008201518160000160006101000a81548173ffffffffffffffffffffffffffffffffffffffff021916908373ffffffffffffffffffffffffffffffffffffffff1602179055506020820151816001015560408201518160020155505050505050565b82805461165c90612005565b90600052602060002090601f01602090048101928261167e57600085556116c5565b82601f1061169757805160ff19168380011785556116c5565b828001600101855582156116c5579182015b828111156116c45782518255916020019190600101906116a9565b5b5090506116d291906116f7565b5090565b50805460008255906000526020600020908101906116f491906116f7565b50565b5b808211156117105760008160009055506001016116f8565b5090565b6000604051905090565b600080fd5b600080fd5b6000819050919050565b61173b81611728565b811461174657600080fd5b50565b60008135905061175881611732565b92915050565b6000602082840312156117745761177361171e565b5b600061178284828501611749565b91505092915050565b600081519050919050565b600082825260208201905092915050565b6000819050602082019050919050565b600073ffffffffffffffffffffffffffffffffffffffff82169050919050565b60006117e2826117b7565b9050919050565b6117f2816117d7565b82525050565b61180181611728565b82525050565b60608201600082015161181d60008501826117e9565b50602082015161183060208501826117f8565b50604082015161184360408501826117f8565b50505050565b60006118558383611807565b60608301905092915050565b6000602082019050919050565b60006118798261178b565b6118838185611796565b935061188e836117a7565b8060005b838110156118bf5781516118a68882611849565b97506118b183611861565b925050600181019050611892565b5085935050505092915050565b600060408201905081810360008301526118e6818561186e565b905081810360208301526118fa818461186e565b90509392505050565b600080fd5b600080fd5b6000601f19601f8301169050919050565b7f4e487b7100000000000000000000000000000000000000000000000000000000600052604160045260246000fd5b6119568261190d565b810181811067ffffffffffffffff821117156119755761197461191e565b5b80604052505050565b6000611988611714565b9050611994828261194d565b919050565b600067ffffffffffffffff8211156119b4576119b361191e565b5b6119bd8261190d565b9050602081019050919050565b82818337600083830152505050565b60006119ec6119e784611999565b61197e565b905082815260208101848484011115611a0857611a07611908565b5b611a138482856119ca565b509392505050565b600082601f830112611a3057611a2f611903565b5b8135611a408482602086016119d9565b91505092915050565b600080600080600060a08688031215611a6557611a6461171e565b5b600086013567ffffffffffffffff811115611a8357611a82611723565b5b611a8f88828901611a1b565b955050602086013567ffffffffffffffff811115611ab057611aaf611723565b5b611abc88828901611a1b565b945050604086013567ffffffffffffffff811115611add57611adc611723565b5b611ae988828901611a1b565b935050606086013567ffffffffffffffff811115611b0a57611b09611723565b5b611b1688828901611a1b565b9250506080611b2788828901611749565b9150509295509295909350565b611b3d81611728565b82525050565b6000602082019050611b586000830184611b34565b92915050565b600081519050919050565b600082825260208201905092915050565b60005b83811015611b98578082015181840152602081019050611b7d565b83811115611ba7576000848401525b50505050565b6000611bb882611b5e565b611bc28185611b69565b9350611bd2818560208601611b7a565b611bdb8161190d565b840191505092915050565b611bef816117d7565b82525050565b60008115159050919050565b611c0a81611bf5565b82525050565b600061018082019050611c26600083018f611b34565b8181036020830152611c38818e611bad565b9050611c47604083018d611b34565b611c54606083018c611b34565b611c61608083018b611be6565b81810360a0830152611c73818a611bad565b9050611c8260c0830189611b34565b611c8f60e0830188611b34565b611c9d610100830187611b34565b611cab610120830186611c01565b818103610140830152611cbe8185611bad565b9050818103610160830152611cd38184611bad565b90509d9c50505050505050505050505050565b6000602082019050611cfb6000830184611be6565b92915050565b611d0a81611bf5565b8114611d1557600080fd5b50565b600081359050611d2781611d01565b92915050565b60008060408385031215611d4457611d4361171e565b5b6000611d5285828601611749565b9250506020611d6385828601611d18565b9150509250929050565b6000602082019050611d826000830184611c01565b92915050565b60008060408385031215611d9f57611d9e61171e565b5b6000611dad85828601611749565b9250506020611dbe85828601611749565b9150509250929050565b611dd1816117d7565b8114611ddc57600080fd5b50565b600081359050611dee81611dc8565b92915050565b600060208284031215611e0a57611e0961171e565b5b6000611e1884828501611ddf565b91505092915050565b7f556e617574686f72697a65640000000000000000000000000000000000000000600082015250565b6000611e57600c83611b69565b9150611e6282611e21565b602082019050919050565b60006020820190508181036000830152611e8681611e4a565b9050919050565b7f4e487b7100000000000000000000000000000000000000000000000000000000600052601160045260246000fd5b6000611ec782611728565b91507fffffffffffffffffffffffffffffffffffffffffffffffffffffffffffffffff821415611efa57611ef9611e8d565b5b600182019050919050565b6000819050919050565b6000819050919050565b6000611f34611f2f611f2a84611f05565b611f0f565b611728565b9050919050565b611f4481611f19565b82525050565b600061010082019050611f60600083018b611b34565b8181036020830152611f72818a611bad565b9050611f816040830189611b34565b611f8e6060830188611be6565b8181036080830152611fa08187611bad565b9050611faf60a0830186611f3b565b611fbc60c0830185611f3b565b611fc960e0830184611f3b565b9998505050505050505050565b7f4e487b7100000000000000000000000000000000000000000000000000000000600052602260045260246000fd5b6000600282049050600182168061201d57607f821691505b6020821081141561203157612030611fd6565b5b50919050565b7f4e487b7100000000000000000000000000000000000000000000000000000000600052603260045260246000fd5b600061207182611728565b915061207c83611728565b9250817fffffffffffffffffffffffffffffffffffffffffffffffffffffffffffffffff04831182151516156120b5576120b4611e8d565b5b828202905092915050565b7f4e487b7100000000000000000000000000000000000000000000000000000000600052601260045260246000fd5b60006120fa82611728565b915061210583611728565b925082612115576121146120c0565b5b828204905092915050565b600061212b82611728565b915061213683611728565b9250827fffffffffffffffffffffffffffffffffffffffffffffffffffffffffffffffff0382111561216b5761216a611e8d565b5b828201905092915050565b600061219161218c612187846117b7565b611f0f565b6117b7565b9050919050565b60006121a382612176565b9050919050565b60006121b582612198565b9050919050565b6121c5816121aa565b82525050565b60006040820190506121e060008301856121bc565b6121ed6020830184611b34565b9392505050565b60008151905061220381611d01565b92915050565b60006020828403121561221f5761221e61171e565b5b600061222d848285016121f4565b91505092915050565b7f5175657374696f6e2049442063616e6e6f74206265206e756c6c000000000000600082015250565b600061226c601a83611b69565b915061227782612236565b602082019050919050565b6000602082019050818103600083015261229b8161225f565b9050919050565b60006060820190506122b76000830186611be6565b6122c46020830185611be6565b6122d16040830184611b34565b94935050505056fea2646970667358221220dd754a847388db8834330e3502ea51614070baf6631ebd10f592b646fff5bf2d64736f6c634300080a0033",
  "immutableReferences": {},
  "source": "// SPDX-License-Identifier: MIT\npragma solidity ^0.8.6;\nimport \"@openzeppelin/contracts/token/ERC20/ERC20.sol\";\n\ncontract Polymarket {\n    address public owner;\n    address public polyToken;\n\n    uint256 public totalQuestions = 0;\n\n    constructor(address _polyToken) {\n        owner = msg.sender;\n        polyToken = _polyToken;\n    }\n\n    mapping(uint256 => Questions) public questions;\n\n    struct Questions {\n        uint256 id;\n        string question;\n        uint256 timestamp;\n        uint256 endTimestamp;\n        address createdBy;\n        string creatorImageHash;\n        AmountAdded[] yesCount;\n        AmountAdded[] noCount;\n        uint256 totalAmount;\n        uint256 totalYesAmount;\n        uint256 totalNoAmount;\n        bool eventCompleted;\n        string description;\n        string resolverUrl;\n    }\n\n    struct AmountAdded {\n        address user;\n        uint256 amount;\n        uint256 timestamp;\n    }\n\n    mapping(address => uint256) public winningAmount;\n    address[] public winningAddresses;\n\n    event QuestionCreated(\n        uint256 id,\n        string question,\n        uint256 timestamp,\n        address createdBy,\n        string creatorImageHash,\n        uint256 totalAmount,\n        uint256 totalYesAmount,\n        uint256 totalNoAmount\n    );\n\n    function createQuestion(\n        string memory _question,\n        string memory _creatorImageHash,\n        string memory _description,\n        string memory _resolverUrl,\n        uint256 _endTimestamp\n    ) public {\n        require(msg.sender == owner, \"Unauthorized\");\n\n        uint256 timestamp = block.timestamp;\n\n        Questions storage question = questions[totalQuestions];\n\n        question.id = totalQuestions++;\n        question.question = _question;\n        question.timestamp = timestamp;\n        question.createdBy = msg.sender;\n        question.creatorImageHash = _creatorImageHash;\n        question.totalAmount = 0;\n        question.totalYesAmount = 0;\n        question.totalNoAmount = 0;\n        question.description = _description;\n        question.resolverUrl = _resolverUrl;\n        question.endTimestamp = _endTimestamp;\n\n        emit QuestionCreated(\n            totalQuestions,\n            _question,\n            timestamp,\n            msg.sender,\n            _creatorImageHash,\n            0,\n            0,\n            0\n        );\n    }\n\n    function addYesBet(uint256 _questionId, uint256 _value) public payable {\n        require(_questionId == 0, \"Question ID cannot be null\");\n        Questions storage question = questions[_questionId];\n        ERC20(polyToken).transferFrom(msg.sender, address(this), _value);\n        AmountAdded memory amountAdded = AmountAdded(\n            msg.sender,\n            _value,\n            block.timestamp\n        );\n\n        question.totalYesAmount += _value;\n        question.totalAmount += _value;\n        question.yesCount.push(amountAdded);\n    }\n\n    function addNoBet(uint256 _questionId, uint256 _value) public payable {\n        require(_questionId == 0, \"Question ID cannot be null\");\n        Questions storage question = questions[_questionId];\n        ERC20(polyToken).transferFrom(msg.sender, address(this), _value);\n        AmountAdded memory amountAdded = AmountAdded(\n            msg.sender,\n            _value,\n            block.timestamp\n        );\n\n        question.totalNoAmount += _value;\n        question.totalAmount += _value;\n        question.noCount.push(amountAdded);\n    }\n\n    function getGraphData(uint256 _questionId)\n        public\n        view\n        returns (AmountAdded[] memory, AmountAdded[] memory)\n    {\n        Questions storage question = questions[_questionId];\n        return (question.yesCount, question.noCount);\n    }\n\n    function distributeWinningAmount(uint256 _questionId, bool eventOutcome)\n        public\n        payable\n    {\n        require(msg.sender == owner, \"Unauthorized\");\n\n        Questions storage question = questions[_questionId];\n        if (eventOutcome) {\n            for (uint256 i = 0; i < question.yesCount.length; i++) {\n                uint256 amount = (question.totalNoAmount *\n                    question.yesCount[i].amount) / question.totalYesAmount;\n                winningAmount[question.yesCount[i].user] += (amount +\n                    question.yesCount[i].amount);\n                winningAddresses.push(question.yesCount[i].user);\n            }\n\n            for (uint256 i = 0; i < winningAddresses.length; i++) {\n                address payable _address = payable(winningAddresses[i]);\n                ERC20(polyToken).transfer(_address, winningAmount[_address]);\n                delete winningAmount[_address];\n            }\n            delete winningAddresses;\n        } else {\n            for (uint256 i = 0; i < question.noCount.length; i++) {\n                uint256 amount = (question.totalYesAmount *\n                    question.noCount[i].amount) / question.totalNoAmount;\n                winningAmount[question.noCount[i].user] += (amount +\n                    question.noCount[i].amount);\n                winningAddresses.push(question.noCount[i].user);\n            }\n\n            for (uint256 i = 0; i < winningAddresses.length; i++) {\n                address payable _address = payable(winningAddresses[i]);\n                ERC20(polyToken).transfer(_address, winningAmount[_address]);\n                delete winningAmount[_address];\n            }\n            delete winningAddresses;\n        }\n        question.eventCompleted = true;\n    }\n\n    function isAdmin() public view returns (bool) {\n        if (msg.sender == owner) return true;\n        else return false;\n    }\n\n    function getBal() public view returns (uint256) {\n        return address(this).balance;\n    }\n}\n\n// \"Will Modi win?\", \"abcd\", \"xyz\", \"https;//google.com\"\n",
  "sourcePath": "/Users/viralsangani/Desktop/Projects/Personal/Polymarket-clone/contracts/Polymarket.sol",
  "compiler": {
    "name": "solc",
    "version": "0.8.10+commit.fc410830.Emscripten.clang"
  },
  "schemaVersion": "3.4.3",
  "updatedAt": "2021-11-17T16:48:24.368Z",
  "networkType": "ethereum",
  "devdoc": {
    "kind": "dev",
    "methods": {},
    "version": 1
  },
  "userdoc": {
    "kind": "user",
    "methods": {},
    "version": 1
  }
}